{
  "_format": "hh-sol-artifact-1",
  "contractName": "HumilityCoinICO",
  "sourceName": "contracts/ICO.sol",
  "abi": [
    {
      "anonymous": false,
      "inputs": [
        {
          "indexed": false,
          "internalType": "address",
          "name": "_buyer",
          "type": "address"
        },
        {
          "indexed": false,
          "internalType": "uint256",
          "name": "_value",
          "type": "uint256"
        }
      ],
      "name": "ICO",
      "type": "event"
    },
    {
      "inputs": [
        {
          "internalType": "contract HumilityCoin",
          "name": "_coinContract",
          "type": "address"
        },
        {
          "internalType": "uint256",
          "name": "_coinPrice",
          "type": "uint256"
        }
      ],
      "name": "CoinICO",
      "outputs": [],
      "stateMutability": "nonpayable",
      "type": "function"
    },
    {
      "inputs": [
        {
          "internalType": "uint256",
          "name": "_noOfcoins",
          "type": "uint256"
        }
      ],
      "name": "buyCoins",
      "outputs": [],
      "stateMutability": "payable",
      "type": "function"
    },
    {
      "inputs": [],
      "name": "coinContract",
      "outputs": [
        {
          "internalType": "contract HumilityCoin",
          "name": "",
          "type": "address"
        }
      ],
      "stateMutability": "view",
      "type": "function"
    },
    {
      "inputs": [],
      "name": "coinPrice",
      "outputs": [
        {
          "internalType": "uint256",
          "name": "",
          "type": "uint256"
        }
      ],
      "stateMutability": "view",
      "type": "function"
    },
    {
      "inputs": [],
      "name": "coinSold",
      "outputs": [
        {
          "internalType": "uint256",
          "name": "",
          "type": "uint256"
        }
      ],
      "stateMutability": "view",
      "type": "function"
    },
    {
      "inputs": [],
      "name": "endSale",
      "outputs": [],
      "stateMutability": "nonpayable",
      "type": "function"
    }
  ],
  "bytecode": "0x608060405234801561001057600080fd5b506109ce806100206000396000f3fe6080604052600436106100555760003560e01c806315215ffe1461005a57806315457f1414610085578063380d831b146100ae57806372dd52e3146100c5578063ad0f2916146100f0578063fe4681961461011b575b600080fd5b34801561006657600080fd5b5061006f610137565b60405161007c919061077b565b60405180910390f35b34801561009157600080fd5b506100ac60048036038101906100a79190610661565b61013d565b005b3480156100ba57600080fd5b506100c36101c9565b005b3480156100d157600080fd5b506100da6103a5565b6040516100e79190610760565b60405180910390f35b3480156100fc57600080fd5b506101056103cb565b604051610112919061077b565b60405180910390f35b6101356004803603810190610130919061069d565b6103d1565b005b60035481565b336000806101000a81548173ffffffffffffffffffffffffffffffffffffffff021916908373ffffffffffffffffffffffffffffffffffffffff16021790555081600160006101000a81548173ffffffffffffffffffffffffffffffffffffffff021916908373ffffffffffffffffffffffffffffffffffffffff160217905550806002819055505050565b60008054906101000a900473ffffffffffffffffffffffffffffffffffffffff1673ffffffffffffffffffffffffffffffffffffffff163373ffffffffffffffffffffffffffffffffffffffff161461022157600080fd5b600160009054906101000a900473ffffffffffffffffffffffffffffffffffffffff1673ffffffffffffffffffffffffffffffffffffffff1663a9059cbb60008054906101000a900473ffffffffffffffffffffffffffffffffffffffff16600160009054906101000a900473ffffffffffffffffffffffffffffffffffffffff1673ffffffffffffffffffffffffffffffffffffffff166370a08231336040518263ffffffff1660e01b81526004016102db919061071c565b60206040518083038186803b1580156102f357600080fd5b505afa158015610307573d6000803e3d6000fd5b505050506040513d601f19601f8201168201806040525081019061032b91906106c6565b6040518363ffffffff1660e01b8152600401610348929190610737565b602060405180830381600087803b15801561036257600080fd5b505af1158015610376573d6000803e3d6000fd5b505050506040513d601f19601f8201168201806040525081019061039a9190610638565b6103a357600080fd5b565b600160009054906101000a900473ffffffffffffffffffffffffffffffffffffffff1681565b60025481565b806002546103e1826002546105ad565b34146103ec57600080fd5b82600160009054906101000a900473ffffffffffffffffffffffffffffffffffffffff1673ffffffffffffffffffffffffffffffffffffffff166370a08231336040518263ffffffff1660e01b8152600401610448919061071c565b60206040518083038186803b15801561046057600080fd5b505afa158015610474573d6000803e3d6000fd5b505050506040513d601f19601f8201168201806040525081019061049891906106c6565b10156104a357600080fd5b600160009054906101000a900473ffffffffffffffffffffffffffffffffffffffff1673ffffffffffffffffffffffffffffffffffffffff1663a9059cbb33856040518363ffffffff1660e01b8152600401610500929190610737565b602060405180830381600087803b15801561051a57600080fd5b505af115801561052e573d6000803e3d6000fd5b505050506040513d601f19601f820116820180604052508101906105529190610638565b61055b57600080fd5b826003546105699190610796565b6003819055507fc03a5bd91a4c092c746c2a1bc184925901dc50de83ecbb6db819becb9c83085633846040516105a0929190610737565b60405180910390a1505050565b6000808214806105d55750828283856105c6919061081d565b9250826105d391906107ec565b145b6105de57600080fd5b92915050565b6000815190506105f381610953565b92915050565b6000813590506106088161096a565b92915050565b60008135905061061d81610981565b92915050565b60008151905061063281610981565b92915050565b60006020828403121561064a57600080fd5b6000610658848285016105e4565b91505092915050565b6000806040838503121561067457600080fd5b6000610682858286016105f9565b92505060206106938582860161060e565b9150509250929050565b6000602082840312156106af57600080fd5b60006106bd8482850161060e565b91505092915050565b6000602082840312156106d857600080fd5b60006106e684828501610623565b91505092915050565b6106f881610877565b82525050565b610707816108d1565b82525050565b610716816108c7565b82525050565b600060208201905061073160008301846106ef565b92915050565b600060408201905061074c60008301856106ef565b610759602083018461070d565b9392505050565b600060208201905061077560008301846106fe565b92915050565b6000602082019050610790600083018461070d565b92915050565b60006107a1826108c7565b91506107ac836108c7565b9250827fffffffffffffffffffffffffffffffffffffffffffffffffffffffffffffffff038211156107e1576107e06108f5565b5b828201905092915050565b60006107f7826108c7565b9150610802836108c7565b92508261081257610811610924565b5b828204905092915050565b6000610828826108c7565b9150610833836108c7565b9250817fffffffffffffffffffffffffffffffffffffffffffffffffffffffffffffffff048311821515161561086c5761086b6108f5565b5b828202905092915050565b6000610882826108a7565b9050919050565b60008115159050919050565b60006108a082610877565b9050919050565b600073ffffffffffffffffffffffffffffffffffffffff82169050919050565b6000819050919050565b60006108dc826108e3565b9050919050565b60006108ee826108a7565b9050919050565b7f4e487b7100000000000000000000000000000000000000000000000000000000600052601160045260246000fd5b7f4e487b7100000000000000000000000000000000000000000000000000000000600052601260045260246000fd5b61095c81610889565b811461096757600080fd5b50565b61097381610895565b811461097e57600080fd5b50565b61098a816108c7565b811461099557600080fd5b5056fea2646970667358221220aaeb5852ae286eea744311af90402b5443dc52bf4898623e3cbd4018d2c1155164736f6c63430008040033",
  "linkReferences": {},
  "deployedLinkReferences": {}
}